{
  "_format": "hh-sol-artifact-1",
  "contractName": "chai",
  "sourceName": "contracts/chai.sol",
  "abi": [
    {
      "inputs": [
        {
          "internalType": "string",
          "name": "_countryName",
          "type": "string"
        },
        {
          "internalType": "string",
          "name": "_division",
          "type": "string"
        },
        {
          "internalType": "string",
          "name": "_upozila",
          "type": "string"
        },
        {
          "internalType": "string",
          "name": "_rmo",
          "type": "string"
        },
        {
          "internalType": "string",
          "name": "_unionName",
          "type": "string"
        },
        {
          "internalType": "string",
          "name": "_moholla",
          "type": "string"
        },
        {
          "internalType": "string",
          "name": "_village",
          "type": "string"
        },
        {
          "internalType": "string",
          "name": "_homeHoldingNumber",
          "type": "string"
        },
        {
          "internalType": "string",
          "name": "_postCode",
          "type": "string"
        }
      ],
      "name": "addUserAddress",
      "outputs": [],
      "stateMutability": "nonpayable",
      "type": "function"
    },
    {
      "inputs": [
        {
          "internalType": "string",
          "name": "_educationalStatus",
          "type": "string"
        },
        {
          "internalType": "string",
          "name": "_profession",
          "type": "string"
        },
        {
          "internalType": "string",
          "name": "_tinNumber",
          "type": "string"
        },
        {
          "internalType": "string",
          "name": "_drivingLicenseNumber",
          "type": "string"
        },
        {
          "internalType": "string",
          "name": "_passportNumber",
          "type": "string"
        },
        {
          "internalType": "string",
          "name": "_religion",
          "type": "string"
        },
        {
          "internalType": "string",
          "name": "_mobileNumber",
          "type": "string"
        }
      ],
      "name": "addUserEducation",
      "outputs": [],
      "stateMutability": "nonpayable",
      "type": "function"
    },
    {
      "inputs": [
        {
          "internalType": "string",
          "name": "_Faname",
          "type": "string"
        },
        {
          "internalType": "string",
          "name": "_FNID",
          "type": "string"
        },
        {
          "internalType": "string",
          "name": "_MAname",
          "type": "string"
        },
        {
          "internalType": "string",
          "name": "_MNID",
          "type": "string"
        },
        {
          "internalType": "string",
          "name": "_husbandName",
          "type": "string"
        },
        {
          "internalType": "string",
          "name": "_husbandNID",
          "type": "string"
        }
      ],
      "name": "addUserGuardian",
      "outputs": [],
      "stateMutability": "nonpayable",
      "type": "function"
    },
    {
      "inputs": [
        {
          "internalType": "string",
          "name": "_name",
          "type": "string"
        },
        {
          "internalType": "string",
          "name": "_gender",
          "type": "string"
        },
        {
          "internalType": "string",
          "name": "_bloodGroup",
          "type": "string"
        },
        {
          "internalType": "string",
          "name": "_birthCertificateNumber",
          "type": "string"
        },
        {
          "internalType": "string",
          "name": "_dateOfBirth",
          "type": "string"
        },
        {
          "internalType": "string",
          "name": "_placeOfBirth",
          "type": "string"
        }
      ],
      "name": "addUserpersonal",
      "outputs": [],
      "stateMutability": "nonpayable",
      "type": "function"
    },
    {
      "inputs": [
        {
          "internalType": "address",
          "name": "",
          "type": "address"
        }
      ],
      "name": "addressInfos",
      "outputs": [
        {
          "internalType": "string",
          "name": "countryName",
          "type": "string"
        },
        {
          "internalType": "string",
          "name": "division",
          "type": "string"
        },
        {
          "internalType": "string",
          "name": "upozila",
          "type": "string"
        },
        {
          "internalType": "string",
          "name": "rmo",
          "type": "string"
        },
        {
          "internalType": "string",
          "name": "unionName",
          "type": "string"
        },
        {
          "internalType": "string",
          "name": "moholla",
          "type": "string"
        },
        {
          "internalType": "string",
          "name": "village",
          "type": "string"
        },
        {
          "internalType": "string",
          "name": "homeHoldingNumber",
          "type": "string"
        },
        {
          "internalType": "string",
          "name": "postCode",
          "type": "string"
        }
      ],
      "stateMutability": "view",
      "type": "function"
    },
    {
      "inputs": [
        {
          "internalType": "address",
          "name": "_add",
          "type": "address"
        },
        {
          "internalType": "string",
          "name": "_section",
          "type": "string"
        },
        {
          "internalType": "string",
          "name": "_division",
          "type": "string"
        }
      ],
      "name": "editAddressInfo",
      "outputs": [],
      "stateMutability": "nonpayable",
      "type": "function"
    },
    {
      "inputs": [
        {
          "internalType": "address",
          "name": "",
          "type": "address"
        }
      ],
      "name": "educationInfos",
      "outputs": [
        {
          "internalType": "string",
          "name": "educationalStatus",
          "type": "string"
        },
        {
          "internalType": "string",
          "name": "profession",
          "type": "string"
        },
        {
          "internalType": "string",
          "name": "tinNumber",
          "type": "string"
        },
        {
          "internalType": "string",
          "name": "drivingLicenseNumber",
          "type": "string"
        },
        {
          "internalType": "string",
          "name": "passportNumber",
          "type": "string"
        },
        {
          "internalType": "string",
          "name": "religion",
          "type": "string"
        },
        {
          "internalType": "string",
          "name": "mobileNumber",
          "type": "string"
        }
      ],
      "stateMutability": "view",
      "type": "function"
    },
    {
      "inputs": [],
      "name": "getEditInfo",
      "outputs": [
        {
          "components": [
            {
              "internalType": "address",
              "name": "add",
              "type": "address"
            },
            {
              "internalType": "string",
              "name": "section",
              "type": "string"
            },
            {
              "internalType": "string",
              "name": "division",
              "type": "string"
            }
          ],
          "internalType": "struct chai.EditData[]",
          "name": "",
          "type": "tuple[]"
        }
      ],
      "stateMutability": "view",
      "type": "function"
    },
    {
      "inputs": [
        {
          "internalType": "address",
          "name": "addr",
          "type": "address"
        }
      ],
      "name": "getNID",
      "outputs": [
        {
          "internalType": "string",
          "name": "",
          "type": "string"
        }
      ],
      "stateMutability": "view",
      "type": "function"
    },
    {
      "inputs": [
        {
          "internalType": "string",
          "name": "_NID",
          "type": "string"
        }
      ],
      "name": "getNID_Holder",
      "outputs": [
        {
          "internalType": "address",
          "name": "",
          "type": "address"
        }
      ],
      "stateMutability": "view",
      "type": "function"
    },
    {
      "inputs": [
        {
          "internalType": "address",
          "name": "_user",
          "type": "address"
        }
      ],
      "name": "getUserInfo",
      "outputs": [
        {
          "components": [
            {
              "internalType": "string",
              "name": "name",
              "type": "string"
            },
            {
              "internalType": "string",
              "name": "gender",
              "type": "string"
            },
            {
              "internalType": "string",
              "name": "bloodGroup",
              "type": "string"
            },
            {
              "internalType": "string",
              "name": "birthCertificateNumber",
              "type": "string"
            },
            {
              "internalType": "string",
              "name": "dateOfBirth",
              "type": "string"
            },
            {
              "internalType": "string",
              "name": "placeOfBirth",
              "type": "string"
            }
          ],
          "internalType": "struct chai.UserPersonal",
          "name": "",
          "type": "tuple"
        },
        {
          "components": [
            {
              "internalType": "string",
              "name": "Faname",
              "type": "string"
            },
            {
              "internalType": "string",
              "name": "FNID",
              "type": "string"
            },
            {
              "internalType": "string",
              "name": "MAname",
              "type": "string"
            },
            {
              "internalType": "string",
              "name": "MNID",
              "type": "string"
            },
            {
              "internalType": "string",
              "name": "husbandName",
              "type": "string"
            },
            {
              "internalType": "string",
              "name": "husbandNID",
              "type": "string"
            }
          ],
          "internalType": "struct chai.UserGuardian",
          "name": "",
          "type": "tuple"
        },
        {
          "components": [
            {
              "internalType": "string",
              "name": "educationalStatus",
              "type": "string"
            },
            {
              "internalType": "string",
              "name": "profession",
              "type": "string"
            },
            {
              "internalType": "string",
              "name": "tinNumber",
              "type": "string"
            },
            {
              "internalType": "string",
              "name": "drivingLicenseNumber",
              "type": "string"
            },
            {
              "internalType": "string",
              "name": "passportNumber",
              "type": "string"
            },
            {
              "internalType": "string",
              "name": "religion",
              "type": "string"
            },
            {
              "internalType": "string",
              "name": "mobileNumber",
              "type": "string"
            }
          ],
          "internalType": "struct chai.UserEducation",
          "name": "",
          "type": "tuple"
        },
        {
          "components": [
            {
              "internalType": "string",
              "name": "countryName",
              "type": "string"
            },
            {
              "internalType": "string",
              "name": "division",
              "type": "string"
            },
            {
              "internalType": "string",
              "name": "upozila",
              "type": "string"
            },
            {
              "internalType": "string",
              "name": "rmo",
              "type": "string"
            },
            {
              "internalType": "string",
              "name": "unionName",
              "type": "string"
            },
            {
              "internalType": "string",
              "name": "moholla",
              "type": "string"
            },
            {
              "internalType": "string",
              "name": "village",
              "type": "string"
            },
            {
              "internalType": "string",
              "name": "homeHoldingNumber",
              "type": "string"
            },
            {
              "internalType": "string",
              "name": "postCode",
              "type": "string"
            }
          ],
          "internalType": "struct chai.UserAddress",
          "name": "",
          "type": "tuple"
        }
      ],
      "stateMutability": "view",
      "type": "function"
    },
    {
      "inputs": [
        {
          "internalType": "address",
          "name": "_add",
          "type": "address"
        }
      ],
      "name": "get_status",
      "outputs": [
        {
          "components": [
            {
              "internalType": "bool",
              "name": "isDocumentVerified",
              "type": "bool"
            },
            {
              "internalType": "bool",
              "name": "call_for_biometric",
              "type": "bool"
            },
            {
              "internalType": "bool",
              "name": "is_NID_assigned",
              "type": "bool"
            }
          ],
          "internalType": "struct chai.Status",
          "name": "",
          "type": "tuple"
        }
      ],
      "stateMutability": "view",
      "type": "function"
    },
    {
      "inputs": [
        {
          "internalType": "address",
          "name": "add",
          "type": "address"
        },
        {
          "internalType": "bool",
          "name": "_isDocumentVerified",
          "type": "bool"
        },
        {
          "internalType": "bool",
          "name": "_call_for_biometric",
          "type": "bool"
        },
        {
          "internalType": "bool",
          "name": "_is_NID_assigned",
          "type": "bool"
        }
      ],
      "name": "give_status",
      "outputs": [],
      "stateMutability": "nonpayable",
      "type": "function"
    },
    {
      "inputs": [
        {
          "internalType": "address",
          "name": "",
          "type": "address"
        }
      ],
      "name": "guardianInfos",
      "outputs": [
        {
          "internalType": "string",
          "name": "Faname",
          "type": "string"
        },
        {
          "internalType": "string",
          "name": "FNID",
          "type": "string"
        },
        {
          "internalType": "string",
          "name": "MAname",
          "type": "string"
        },
        {
          "internalType": "string",
          "name": "MNID",
          "type": "string"
        },
        {
          "internalType": "string",
          "name": "husbandName",
          "type": "string"
        },
        {
          "internalType": "string",
          "name": "husbandNID",
          "type": "string"
        }
      ],
      "stateMutability": "view",
      "type": "function"
    },
    {
      "inputs": [
        {
          "internalType": "address",
          "name": "",
          "type": "address"
        }
      ],
      "name": "personalInfos",
      "outputs": [
        {
          "internalType": "string",
          "name": "name",
          "type": "string"
        },
        {
          "internalType": "string",
          "name": "gender",
          "type": "string"
        },
        {
          "internalType": "string",
          "name": "bloodGroup",
          "type": "string"
        },
        {
          "internalType": "string",
          "name": "birthCertificateNumber",
          "type": "string"
        },
        {
          "internalType": "string",
          "name": "dateOfBirth",
          "type": "string"
        },
        {
          "internalType": "string",
          "name": "placeOfBirth",
          "type": "string"
        }
      ],
      "stateMutability": "view",
      "type": "function"
    },
    {
      "inputs": [
        {
          "internalType": "address",
          "name": "addr",
          "type": "address"
        },
        {
          "internalType": "string",
          "name": "_NID",
          "type": "string"
        }
      ],
      "name": "setNID",
      "outputs": [],
      "stateMutability": "nonpayable",
      "type": "function"
    },
    {
      "inputs": [
        {
          "internalType": "address",
          "name": "",
          "type": "address"
        }
      ],
      "name": "status",
      "outputs": [
        {
          "internalType": "bool",
          "name": "isDocumentVerified",
          "type": "bool"
        },
        {
          "internalType": "bool",
          "name": "call_for_biometric",
          "type": "bool"
        },
        {
          "internalType": "bool",
          "name": "is_NID_assigned",
          "type": "bool"
        }
      ],
      "stateMutability": "view",
      "type": "function"
    },
    {
      "inputs": [],
      "name": "totalUsers",
      "outputs": [
        {
          "internalType": "uint256",
          "name": "",
          "type": "uint256"
        }
      ],
      "stateMutability": "view",
      "type": "function"
    },
    {
      "inputs": [
        {
          "internalType": "address",
          "name": "add",
          "type": "address"
        },
        {
          "internalType": "string",
          "name": "_countryName",
          "type": "string"
        },
        {
          "internalType": "string",
          "name": "_division",
          "type": "string"
        },
        {
          "internalType": "string",
          "name": "_upozila",
          "type": "string"
        },
        {
          "internalType": "string",
          "name": "_rmo",
          "type": "string"
        },
        {
          "internalType": "string",
          "name": "_unionName",
          "type": "string"
        },
        {
          "internalType": "string",
          "name": "_moholla",
          "type": "string"
        },
        {
          "internalType": "string",
          "name": "_village",
          "type": "string"
        },
        {
          "internalType": "string",
          "name": "_homeHoldingNumber",
          "type": "string"
        },
        {
          "internalType": "string",
          "name": "_postCode",
          "type": "string"
        }
      ],
      "name": "updateAddressInfo",
      "outputs": [],
      "stateMutability": "nonpayable",
      "type": "function"
    },
    {
      "inputs": [
        {
          "internalType": "address",
          "name": "add",
          "type": "address"
        },
        {
          "internalType": "string",
          "name": "_educationalStatus",
          "type": "string"
        },
        {
          "internalType": "string",
          "name": "_profession",
          "type": "string"
        },
        {
          "internalType": "string",
          "name": "_tinNumber",
          "type": "string"
        },
        {
          "internalType": "string",
          "name": "_drivingLicenseNumber",
          "type": "string"
        },
        {
          "internalType": "string",
          "name": "_passportNumber",
          "type": "string"
        },
        {
          "internalType": "string",
          "name": "_religion",
          "type": "string"
        },
        {
          "internalType": "string",
          "name": "_mobileNumber",
          "type": "string"
        }
      ],
      "name": "updateEducationInfo",
      "outputs": [],
      "stateMutability": "nonpayable",
      "type": "function"
    },
    {
      "inputs": [
        {
          "internalType": "address",
          "name": "add",
          "type": "address"
        },
        {
          "internalType": "string",
          "name": "_Faname",
          "type": "string"
        },
        {
          "internalType": "string",
          "name": "_FNID",
          "type": "string"
        },
        {
          "internalType": "string",
          "name": "_MAname",
          "type": "string"
        },
        {
          "internalType": "string",
          "name": "_MNID",
          "type": "string"
        },
        {
          "internalType": "string",
          "name": "_husbandName",
          "type": "string"
        },
        {
          "internalType": "string",
          "name": "_husbandNID",
          "type": "string"
        }
      ],
      "name": "updateGuardianInfo",
      "outputs": [],
      "stateMutability": "nonpayable",
      "type": "function"
    },
    {
      "inputs": [
        {
          "internalType": "address",
          "name": "add",
          "type": "address"
        },
        {
          "internalType": "string",
          "name": "_name",
          "type": "string"
        },
        {
          "internalType": "string",
          "name": "_gender",
          "type": "string"
        },
        {
          "internalType": "string",
          "name": "_bloodGroup",
          "type": "string"
        },
        {
          "internalType": "string",
          "name": "_birthCertificateNumber",
          "type": "string"
        },
        {
          "internalType": "string",
          "name": "_dateOfBirth",
          "type": "string"
        },
        {
          "internalType": "string",
          "name": "_placeOfBirth",
          "type": "string"
        }
      ],
      "name": "updatePersonalInfo",
      "outputs": [],
      "stateMutability": "nonpayable",
      "type": "function"
    }
  ],
  "bytecode": "0x608060405234801561001057600080fd5b50614f4b806100206000396000f3fe608060405234801561001057600080fd5b50600436106101425760003560e01c806364ad82ef116100b857806397f0a61e1161007c57806397f0a61e1461038b578063bff1f9e1146103a7578063c036412b146103c5578063ca7a75d1146103fa578063dd03276914610432578063eab751cc1461046857610142565b806364ad82ef146102eb57806367f5243314610307578063790dc4c7146103235780638bbeb0ae1461033f57806390a3a8311461036f57610142565b80633e2c08ef1161010a5780633e2c08ef146101ee5780634933717f1461021e57806358b7851f1461023a5780635c4b5370146102565780636386c1c714610286578063645b8b1b146102b957610142565b8063141a30651461014757806316e08b7d146101655780632a723ea91461018157806337f979621461019d578063386ecec7146101d2575b600080fd5b61014f610484565b60405161015c91906137eb565b60405180910390f35b61017f600480360381019061017a9190613956565b61065d565b005b61019b60048036038101906101969190613b48565b6107b1565b005b6101b760048036038101906101b29190613c92565b6108ac565b6040516101c996959493929190613d09565b60405180910390f35b6101ec60048036038101906101e79190613d94565b610c18565b005b61020860048036038101906102039190613c92565b610d2a565b6040516102159190613f26565b60405180910390f35b61023860048036038101906102339190613b48565b610dd4565b005b610254600480360381019061024f9190613f41565b610ed0565b005b610270600480360381019061026b9190613c92565b611025565b60405161027d919061411c565b60405180910390f35b6102a0600480360381019061029b9190613c92565b6110f6565b6040516102b09493929190614459565b60405180910390f35b6102d360048036038101906102ce9190613c92565b612251565b6040516102e2939291906144c9565b60405180910390f35b61030560048036038101906103009190613d94565b6122a2565b005b610321600480360381019061031c9190614500565b61239d565b005b61033d6004803603810190610338919061458b565b612473565b005b610359600480360381019061035491906146f1565b61258b565b6040516103669190614749565b60405180910390f35b61038960048036038101906103849190614790565b6125d3565b005b6103a560048036038101906103a091906147f7565b61269c565b005b6103af6127b5565b6040516103bc919061498a565b60405180910390f35b6103df60048036038101906103da9190613c92565b6127bb565b6040516103f196959493929190613d09565b60405180910390f35b610414600480360381019061040f9190613c92565b612b27565b604051610429999897969594939291906149a5565b60405180910390f35b61044c60048036038101906104479190613c92565b61303d565b60405161045f9796959493929190614a71565b60405180910390f35b610482600480360381019061047d9190614b11565b613437565b005b60606005805480602002602001604051908101604052809291908181526020016000905b8282101561065457838290600052602060002090600302016040518060600160405290816000820160009054906101000a900473ffffffffffffffffffffffffffffffffffffffff1673ffffffffffffffffffffffffffffffffffffffff1673ffffffffffffffffffffffffffffffffffffffff16815260200160018201805461053190614b9c565b80601f016020809104026020016040519081016040528092919081815260200182805461055d90614b9c565b80156105aa5780601f1061057f576101008083540402835291602001916105aa565b820191906000526020600020905b81548152906001019060200180831161058d57829003601f168201915b505050505081526020016002820180546105c390614b9c565b80601f01602080910402602001604051908101604052809291908181526020018280546105ef90614b9c565b801561063c5780601f106106115761010080835404028352916020019161063c565b820191906000526020600020905b81548152906001019060200180831161061f57829003601f168201915b505050505081525050815260200190600101906104a8565b50505050905090565b6040518061012001604052808a815260200189815260200188815260200187815260200186815260200185815260200184815260200183815260200182815250600460003373ffffffffffffffffffffffffffffffffffffffff1673ffffffffffffffffffffffffffffffffffffffff16815260200190815260200160002060008201518160000190816106f19190614d79565b5060208201518160010190816107079190614d79565b50604082015181600201908161071d9190614d79565b5060608201518160030190816107339190614d79565b5060808201518160040190816107499190614d79565b5060a082015181600501908161075f9190614d79565b5060c08201518160060190816107759190614d79565b5060e082015181600701908161078b9190614d79565b506101008201518160080190816107a29190614d79565b50905050505050505050505050565b6040518060c00160405280878152602001868152602001858152602001848152602001838152602001828152506000808973ffffffffffffffffffffffffffffffffffffffff1673ffffffffffffffffffffffffffffffffffffffff16815260200190815260200160002060008201518160000190816108319190614d79565b5060208201518160010190816108479190614d79565b50604082015181600201908161085d9190614d79565b5060608201518160030190816108739190614d79565b5060808201518160040190816108899190614d79565b5060a082015181600501908161089f9190614d79565b5090505050505050505050565b60006020528060005260406000206000915090508060000180546108cf90614b9c565b80601f01602080910402602001604051908101604052809291908181526020018280546108fb90614b9c565b80156109485780601f1061091d57610100808354040283529160200191610948565b820191906000526020600020905b81548152906001019060200180831161092b57829003601f168201915b50505050509080600101805461095d90614b9c565b80601f016020809104026020016040519081016040528092919081815260200182805461098990614b9c565b80156109d65780601f106109ab576101008083540402835291602001916109d6565b820191906000526020600020905b8154815290600101906020018083116109b957829003601f168201915b5050505050908060020180546109eb90614b9c565b80601f0160208091040260200160405190810160405280929190818152602001828054610a1790614b9c565b8015610a645780601f10610a3957610100808354040283529160200191610a64565b820191906000526020600020905b815481529060010190602001808311610a4757829003601f168201915b505050505090806003018054610a7990614b9c565b80601f0160208091040260200160405190810160405280929190818152602001828054610aa590614b9c565b8015610af25780601f10610ac757610100808354040283529160200191610af2565b820191906000526020600020905b815481529060010190602001808311610ad557829003601f168201915b505050505090806004018054610b0790614b9c565b80601f0160208091040260200160405190810160405280929190818152602001828054610b3390614b9c565b8015610b805780601f10610b5557610100808354040283529160200191610b80565b820191906000526020600020905b815481529060010190602001808311610b6357829003601f168201915b505050505090806005018054610b9590614b9c565b80601f0160208091040260200160405190810160405280929190818152602001828054610bc190614b9c565b8015610c0e5780601f10610be357610100808354040283529160200191610c0e565b820191906000526020600020905b815481529060010190602001808311610bf157829003601f168201915b5050505050905086565b6040518060c00160405280878152602001868152602001858152602001848152602001838152602001828152506000803373ffffffffffffffffffffffffffffffffffffffff1673ffffffffffffffffffffffffffffffffffffffff1681526020019081526020016000206000820151816000019081610c989190614d79565b506020820151816001019081610cae9190614d79565b506040820151816002019081610cc49190614d79565b506060820151816003019081610cda9190614d79565b506080820151816004019081610cf09190614d79565b5060a0820151816005019081610d069190614d79565b5090505060016000815480929190610d1d90614e7a565b9190505550505050505050565b610d326134e5565b600660008373ffffffffffffffffffffffffffffffffffffffff1673ffffffffffffffffffffffffffffffffffffffff1681526020019081526020016000206040518060600160405290816000820160009054906101000a900460ff161515151581526020016000820160019054906101000a900460ff161515151581526020016000820160029054906101000a900460ff1615151515815250509050919050565b6040518060c0016040528087815260200186815260200185815260200184815260200183815260200182815250600260008973ffffffffffffffffffffffffffffffffffffffff1673ffffffffffffffffffffffffffffffffffffffff1681526020019081526020016000206000820151816000019081610e559190614d79565b506020820151816001019081610e6b9190614d79565b506040820151816002019081610e819190614d79565b506060820151816003019081610e979190614d79565b506080820151816004019081610ead9190614d79565b5060a0820151816005019081610ec39190614d79565b5090505050505050505050565b6040518061012001604052808a815260200189815260200188815260200187815260200186815260200185815260200184815260200183815260200182815250600460008c73ffffffffffffffffffffffffffffffffffffffff1673ffffffffffffffffffffffffffffffffffffffff1681526020019081526020016000206000820151816000019081610f649190614d79565b506020820151816001019081610f7a9190614d79565b506040820151816002019081610f909190614d79565b506060820151816003019081610fa69190614d79565b506080820151816004019081610fbc9190614d79565b5060a0820151816005019081610fd29190614d79565b5060c0820151816006019081610fe89190614d79565b5060e0820151816007019081610ffe9190614d79565b506101008201518160080190816110159190614d79565b5090505050505050505050505050565b6060600760008373ffffffffffffffffffffffffffffffffffffffff1673ffffffffffffffffffffffffffffffffffffffff168152602001908152602001600020805461107190614b9c565b80601f016020809104026020016040519081016040528092919081815260200182805461109d90614b9c565b80156110ea5780601f106110bf576101008083540402835291602001916110ea565b820191906000526020600020905b8154815290600101906020018083116110cd57829003601f168201915b50505050509050919050565b6110fe61350c565b611106613542565b61110e613578565b6111166135b5565b6000808673ffffffffffffffffffffffffffffffffffffffff1673ffffffffffffffffffffffffffffffffffffffff168152602001908152602001600020600260008773ffffffffffffffffffffffffffffffffffffffff1673ffffffffffffffffffffffffffffffffffffffff168152602001908152602001600020600360008873ffffffffffffffffffffffffffffffffffffffff1673ffffffffffffffffffffffffffffffffffffffff168152602001908152602001600020600460008973ffffffffffffffffffffffffffffffffffffffff1673ffffffffffffffffffffffffffffffffffffffff168152602001908152602001600020836040518060c001604052908160008201805461122d90614b9c565b80601f016020809104026020016040519081016040528092919081815260200182805461125990614b9c565b80156112a65780601f1061127b576101008083540402835291602001916112a6565b820191906000526020600020905b81548152906001019060200180831161128957829003601f168201915b505050505081526020016001820180546112bf90614b9c565b80601f01602080910402602001604051908101604052809291908181526020018280546112eb90614b9c565b80156113385780601f1061130d57610100808354040283529160200191611338565b820191906000526020600020905b81548152906001019060200180831161131b57829003601f168201915b5050505050815260200160028201805461135190614b9c565b80601f016020809104026020016040519081016040528092919081815260200182805461137d90614b9c565b80156113ca5780601f1061139f576101008083540402835291602001916113ca565b820191906000526020600020905b8154815290600101906020018083116113ad57829003601f168201915b505050505081526020016003820180546113e390614b9c565b80601f016020809104026020016040519081016040528092919081815260200182805461140f90614b9c565b801561145c5780601f106114315761010080835404028352916020019161145c565b820191906000526020600020905b81548152906001019060200180831161143f57829003601f168201915b5050505050815260200160048201805461147590614b9c565b80601f01602080910402602001604051908101604052809291908181526020018280546114a190614b9c565b80156114ee5780601f106114c3576101008083540402835291602001916114ee565b820191906000526020600020905b8154815290600101906020018083116114d157829003601f168201915b5050505050815260200160058201805461150790614b9c565b80601f016020809104026020016040519081016040528092919081815260200182805461153390614b9c565b80156115805780601f1061155557610100808354040283529160200191611580565b820191906000526020600020905b81548152906001019060200180831161156357829003601f168201915b5050505050815250509350826040518060c00160405290816000820180546115a790614b9c565b80601f01602080910402602001604051908101604052809291908181526020018280546115d390614b9c565b80156116205780601f106115f557610100808354040283529160200191611620565b820191906000526020600020905b81548152906001019060200180831161160357829003601f168201915b5050505050815260200160018201805461163990614b9c565b80601f016020809104026020016040519081016040528092919081815260200182805461166590614b9c565b80156116b25780601f10611687576101008083540402835291602001916116b2565b820191906000526020600020905b81548152906001019060200180831161169557829003601f168201915b505050505081526020016002820180546116cb90614b9c565b80601f01602080910402602001604051908101604052809291908181526020018280546116f790614b9c565b80156117445780601f1061171957610100808354040283529160200191611744565b820191906000526020600020905b81548152906001019060200180831161172757829003601f168201915b5050505050815260200160038201805461175d90614b9c565b80601f016020809104026020016040519081016040528092919081815260200182805461178990614b9c565b80156117d65780601f106117ab576101008083540402835291602001916117d6565b820191906000526020600020905b8154815290600101906020018083116117b957829003601f168201915b505050505081526020016004820180546117ef90614b9c565b80601f016020809104026020016040519081016040528092919081815260200182805461181b90614b9c565b80156118685780601f1061183d57610100808354040283529160200191611868565b820191906000526020600020905b81548152906001019060200180831161184b57829003601f168201915b5050505050815260200160058201805461188190614b9c565b80601f01602080910402602001604051908101604052809291908181526020018280546118ad90614b9c565b80156118fa5780601f106118cf576101008083540402835291602001916118fa565b820191906000526020600020905b8154815290600101906020018083116118dd57829003601f168201915b5050505050815250509250816040518060e001604052908160008201805461192190614b9c565b80601f016020809104026020016040519081016040528092919081815260200182805461194d90614b9c565b801561199a5780601f1061196f5761010080835404028352916020019161199a565b820191906000526020600020905b81548152906001019060200180831161197d57829003601f168201915b505050505081526020016001820180546119b390614b9c565b80601f01602080910402602001604051908101604052809291908181526020018280546119df90614b9c565b8015611a2c5780601f10611a0157610100808354040283529160200191611a2c565b820191906000526020600020905b815481529060010190602001808311611a0f57829003601f168201915b50505050508152602001600282018054611a4590614b9c565b80601f0160208091040260200160405190810160405280929190818152602001828054611a7190614b9c565b8015611abe5780601f10611a9357610100808354040283529160200191611abe565b820191906000526020600020905b815481529060010190602001808311611aa157829003601f168201915b50505050508152602001600382018054611ad790614b9c565b80601f0160208091040260200160405190810160405280929190818152602001828054611b0390614b9c565b8015611b505780601f10611b2557610100808354040283529160200191611b50565b820191906000526020600020905b815481529060010190602001808311611b3357829003601f168201915b50505050508152602001600482018054611b6990614b9c565b80601f0160208091040260200160405190810160405280929190818152602001828054611b9590614b9c565b8015611be25780601f10611bb757610100808354040283529160200191611be2565b820191906000526020600020905b815481529060010190602001808311611bc557829003601f168201915b50505050508152602001600582018054611bfb90614b9c565b80601f0160208091040260200160405190810160405280929190818152602001828054611c2790614b9c565b8015611c745780601f10611c4957610100808354040283529160200191611c74565b820191906000526020600020905b815481529060010190602001808311611c5757829003601f168201915b50505050508152602001600682018054611c8d90614b9c565b80601f0160208091040260200160405190810160405280929190818152602001828054611cb990614b9c565b8015611d065780601f10611cdb57610100808354040283529160200191611d06565b820191906000526020600020905b815481529060010190602001808311611ce957829003601f168201915b50505050508152505091508060405180610120016040529081600082018054611d2e90614b9c565b80601f0160208091040260200160405190810160405280929190818152602001828054611d5a90614b9c565b8015611da75780601f10611d7c57610100808354040283529160200191611da7565b820191906000526020600020905b815481529060010190602001808311611d8a57829003601f168201915b50505050508152602001600182018054611dc090614b9c565b80601f0160208091040260200160405190810160405280929190818152602001828054611dec90614b9c565b8015611e395780601f10611e0e57610100808354040283529160200191611e39565b820191906000526020600020905b815481529060010190602001808311611e1c57829003601f168201915b50505050508152602001600282018054611e5290614b9c565b80601f0160208091040260200160405190810160405280929190818152602001828054611e7e90614b9c565b8015611ecb5780601f10611ea057610100808354040283529160200191611ecb565b820191906000526020600020905b815481529060010190602001808311611eae57829003601f168201915b50505050508152602001600382018054611ee490614b9c565b80601f0160208091040260200160405190810160405280929190818152602001828054611f1090614b9c565b8015611f5d5780601f10611f3257610100808354040283529160200191611f5d565b820191906000526020600020905b815481529060010190602001808311611f4057829003601f168201915b50505050508152602001600482018054611f7690614b9c565b80601f0160208091040260200160405190810160405280929190818152602001828054611fa290614b9c565b8015611fef5780601f10611fc457610100808354040283529160200191611fef565b820191906000526020600020905b815481529060010190602001808311611fd257829003601f168201915b5050505050815260200160058201805461200890614b9c565b80601f016020809104026020016040519081016040528092919081815260200182805461203490614b9c565b80156120815780601f1061205657610100808354040283529160200191612081565b820191906000526020600020905b81548152906001019060200180831161206457829003601f168201915b5050505050815260200160068201805461209a90614b9c565b80601f01602080910402602001604051908101604052809291908181526020018280546120c690614b9c565b80156121135780601f106120e857610100808354040283529160200191612113565b820191906000526020600020905b8154815290600101906020018083116120f657829003601f168201915b5050505050815260200160078201805461212c90614b9c565b80601f016020809104026020016040519081016040528092919081815260200182805461215890614b9c565b80156121a55780601f1061217a576101008083540402835291602001916121a5565b820191906000526020600020905b81548152906001019060200180831161218857829003601f168201915b505050505081526020016008820180546121be90614b9c565b80601f01602080910402602001604051908101604052809291908181526020018280546121ea90614b9c565b80156122375780601f1061220c57610100808354040283529160200191612237565b820191906000526020600020905b81548152906001019060200180831161221a57829003601f168201915b505050505081525050905093509350935093509193509193565b60066020528060005260406000206000915090508060000160009054906101000a900460ff16908060000160019054906101000a900460ff16908060000160029054906101000a900460ff16905083565b6040518060c0016040528087815260200186815260200185815260200184815260200183815260200182815250600260003373ffffffffffffffffffffffffffffffffffffffff1673ffffffffffffffffffffffffffffffffffffffff16815260200190815260200160002060008201518160000190816123239190614d79565b5060208201518160010190816123399190614d79565b50604082015181600201908161234f9190614d79565b5060608201518160030190816123659190614d79565b50608082015181600401908161237b9190614d79565b5060a08201518160050190816123919190614d79565b50905050505050505050565b600560405180606001604052808573ffffffffffffffffffffffffffffffffffffffff16815260200184815260200183815250908060018154018082558091505060019003906000526020600020906003020160009091909190915060008201518160000160006101000a81548173ffffffffffffffffffffffffffffffffffffffff021916908373ffffffffffffffffffffffffffffffffffffffff16021790555060208201518160010190816124559190614d79565b50604082015181600201908161246b9190614d79565b505050505050565b6040518060e0016040528088815260200187815260200186815260200185815260200184815260200183815260200182815250600360003373ffffffffffffffffffffffffffffffffffffffff1673ffffffffffffffffffffffffffffffffffffffff16815260200190815260200160002060008201518160000190816124fa9190614d79565b5060208201518160010190816125109190614d79565b5060408201518160020190816125269190614d79565b50606082015181600301908161253c9190614d79565b5060808201518160040190816125529190614d79565b5060a08201518160050190816125689190614d79565b5060c082015181600601908161257e9190614d79565b5090505050505050505050565b600060088260405161259d9190614efe565b908152602001604051809103902060009054906101000a900473ffffffffffffffffffffffffffffffffffffffff169050919050565b604051806060016040528084151581526020018315158152602001821515815250600660008673ffffffffffffffffffffffffffffffffffffffff1673ffffffffffffffffffffffffffffffffffffffff16815260200190815260200160002060008201518160000160006101000a81548160ff02191690831515021790555060208201518160000160016101000a81548160ff02191690831515021790555060408201518160000160026101000a81548160ff02191690831515021790555090505050505050565b6040518060e0016040528088815260200187815260200186815260200185815260200184815260200183815260200182815250600360008a73ffffffffffffffffffffffffffffffffffffffff1673ffffffffffffffffffffffffffffffffffffffff16815260200190815260200160002060008201518160000190816127239190614d79565b5060208201518160010190816127399190614d79565b50604082015181600201908161274f9190614d79565b5060608201518160030190816127659190614d79565b50608082015181600401908161277b9190614d79565b5060a08201518160050190816127919190614d79565b5060c08201518160060190816127a79190614d79565b509050505050505050505050565b60015481565b60026020528060005260406000206000915090508060000180546127de90614b9c565b80601f016020809104026020016040519081016040528092919081815260200182805461280a90614b9c565b80156128575780601f1061282c57610100808354040283529160200191612857565b820191906000526020600020905b81548152906001019060200180831161283a57829003601f168201915b50505050509080600101805461286c90614b9c565b80601f016020809104026020016040519081016040528092919081815260200182805461289890614b9c565b80156128e55780601f106128ba576101008083540402835291602001916128e5565b820191906000526020600020905b8154815290600101906020018083116128c857829003601f168201915b5050505050908060020180546128fa90614b9c565b80601f016020809104026020016040519081016040528092919081815260200182805461292690614b9c565b80156129735780601f1061294857610100808354040283529160200191612973565b820191906000526020600020905b81548152906001019060200180831161295657829003601f168201915b50505050509080600301805461298890614b9c565b80601f01602080910402602001604051908101604052809291908181526020018280546129b490614b9c565b8015612a015780601f106129d657610100808354040283529160200191612a01565b820191906000526020600020905b8154815290600101906020018083116129e457829003601f168201915b505050505090806004018054612a1690614b9c565b80601f0160208091040260200160405190810160405280929190818152602001828054612a4290614b9c565b8015612a8f5780601f10612a6457610100808354040283529160200191612a8f565b820191906000526020600020905b815481529060010190602001808311612a7257829003601f168201915b505050505090806005018054612aa490614b9c565b80601f0160208091040260200160405190810160405280929190818152602001828054612ad090614b9c565b8015612b1d5780601f10612af257610100808354040283529160200191612b1d565b820191906000526020600020905b815481529060010190602001808311612b0057829003601f168201915b5050505050905086565b6004602052806000526040600020600091509050806000018054612b4a90614b9c565b80601f0160208091040260200160405190810160405280929190818152602001828054612b7690614b9c565b8015612bc35780601f10612b9857610100808354040283529160200191612bc3565b820191906000526020600020905b815481529060010190602001808311612ba657829003601f168201915b505050505090806001018054612bd890614b9c565b80601f0160208091040260200160405190810160405280929190818152602001828054612c0490614b9c565b8015612c515780601f10612c2657610100808354040283529160200191612c51565b820191906000526020600020905b815481529060010190602001808311612c3457829003601f168201915b505050505090806002018054612c6690614b9c565b80601f0160208091040260200160405190810160405280929190818152602001828054612c9290614b9c565b8015612cdf5780601f10612cb457610100808354040283529160200191612cdf565b820191906000526020600020905b815481529060010190602001808311612cc257829003601f168201915b505050505090806003018054612cf490614b9c565b80601f0160208091040260200160405190810160405280929190818152602001828054612d2090614b9c565b8015612d6d5780601f10612d4257610100808354040283529160200191612d6d565b820191906000526020600020905b815481529060010190602001808311612d5057829003601f168201915b505050505090806004018054612d8290614b9c565b80601f0160208091040260200160405190810160405280929190818152602001828054612dae90614b9c565b8015612dfb5780601f10612dd057610100808354040283529160200191612dfb565b820191906000526020600020905b815481529060010190602001808311612dde57829003601f168201915b505050505090806005018054612e1090614b9c565b80601f0160208091040260200160405190810160405280929190818152602001828054612e3c90614b9c565b8015612e895780601f10612e5e57610100808354040283529160200191612e89565b820191906000526020600020905b815481529060010190602001808311612e6c57829003601f168201915b505050505090806006018054612e9e90614b9c565b80601f0160208091040260200160405190810160405280929190818152602001828054612eca90614b9c565b8015612f175780601f10612eec57610100808354040283529160200191612f17565b820191906000526020600020905b815481529060010190602001808311612efa57829003601f168201915b505050505090806007018054612f2c90614b9c565b80601f0160208091040260200160405190810160405280929190818152602001828054612f5890614b9c565b8015612fa55780601f10612f7a57610100808354040283529160200191612fa5565b820191906000526020600020905b815481529060010190602001808311612f8857829003601f168201915b505050505090806008018054612fba90614b9c565b80601f0160208091040260200160405190810160405280929190818152602001828054612fe690614b9c565b80156130335780601f1061300857610100808354040283529160200191613033565b820191906000526020600020905b81548152906001019060200180831161301657829003601f168201915b5050505050905089565b600360205280600052604060002060009150905080600001805461306090614b9c565b80601f016020809104026020016040519081016040528092919081815260200182805461308c90614b9c565b80156130d95780601f106130ae576101008083540402835291602001916130d9565b820191906000526020600020905b8154815290600101906020018083116130bc57829003601f168201915b5050505050908060010180546130ee90614b9c565b80601f016020809104026020016040519081016040528092919081815260200182805461311a90614b9c565b80156131675780601f1061313c57610100808354040283529160200191613167565b820191906000526020600020905b81548152906001019060200180831161314a57829003601f168201915b50505050509080600201805461317c90614b9c565b80601f01602080910402602001604051908101604052809291908181526020018280546131a890614b9c565b80156131f55780601f106131ca576101008083540402835291602001916131f5565b820191906000526020600020905b8154815290600101906020018083116131d857829003601f168201915b50505050509080600301805461320a90614b9c565b80601f016020809104026020016040519081016040528092919081815260200182805461323690614b9c565b80156132835780601f1061325857610100808354040283529160200191613283565b820191906000526020600020905b81548152906001019060200180831161326657829003601f168201915b50505050509080600401805461329890614b9c565b80601f01602080910402602001604051908101604052809291908181526020018280546132c490614b9c565b80156133115780601f106132e657610100808354040283529160200191613311565b820191906000526020600020905b8154815290600101906020018083116132f457829003601f168201915b50505050509080600501805461332690614b9c565b80601f016020809104026020016040519081016040528092919081815260200182805461335290614b9c565b801561339f5780601f106133745761010080835404028352916020019161339f565b820191906000526020600020905b81548152906001019060200180831161338257829003601f168201915b5050505050908060060180546133b490614b9c565b80601f01602080910402602001604051908101604052809291908181526020018280546133e090614b9c565b801561342d5780601f106134025761010080835404028352916020019161342d565b820191906000526020600020905b81548152906001019060200180831161341057829003601f168201915b5050505050905087565b80600760008473ffffffffffffffffffffffffffffffffffffffff1673ffffffffffffffffffffffffffffffffffffffff16815260200190815260200160002090816134839190614d79565b50816008826040516134959190614efe565b908152602001604051809103902060006101000a81548173ffffffffffffffffffffffffffffffffffffffff021916908373ffffffffffffffffffffffffffffffffffffffff1602179055505050565b60405180606001604052806000151581526020016000151581526020016000151581525090565b6040518060c001604052806060815260200160608152602001606081526020016060815260200160608152602001606081525090565b6040518060c001604052806060815260200160608152602001606081526020016060815260200160608152602001606081525090565b6040518060e00160405280606081526020016060815260200160608152602001606081526020016060815260200160608152602001606081525090565b6040518061012001604052806060815260200160608152602001606081526020016060815260200160608152602001606081526020016060815260200160608152602001606081525090565b600081519050919050565b600082825260208201905092915050565b6000819050602082019050919050565b600073ffffffffffffffffffffffffffffffffffffffff82169050919050565b60006136588261362d565b9050919050565b6136688161364d565b82525050565b600081519050919050565b600082825260208201905092915050565b60005b838110156136a857808201518184015260208101905061368d565b60008484015250505050565b6000601f19601f8301169050919050565b60006136d08261366e565b6136da8185613679565b93506136ea81856020860161368a565b6136f3816136b4565b840191505092915050565b6000606083016000830151613716600086018261365f565b506020830151848203602086015261372e82826136c5565b9150506040830151848203604086015261374882826136c5565b9150508091505092915050565b600061376183836136fe565b905092915050565b6000602082019050919050565b600061378182613601565b61378b818561360c565b93508360208202850161379d8561361d565b8060005b858110156137d957848403895281516137ba8582613755565b94506137c583613769565b925060208a019950506001810190506137a1565b50829750879550505050505092915050565b600060208201905081810360008301526138058184613776565b905092915050565b6000604051905090565b600080fd5b600080fd5b600080fd5b600080fd5b7f4e487b7100000000000000000000000000000000000000000000000000000000600052604160045260246000fd5b613863826136b4565b810181811067ffffffffffffffff821117156138825761388161382b565b5b80604052505050565b600061389561380d565b90506138a1828261385a565b919050565b600067ffffffffffffffff8211156138c1576138c061382b565b5b6138ca826136b4565b9050602081019050919050565b82818337600083830152505050565b60006138f96138f4846138a6565b61388b565b90508281526020810184848401111561391557613914613826565b5b6139208482856138d7565b509392505050565b600082601f83011261393d5761393c613821565b5b813561394d8482602086016138e6565b91505092915050565b60008060008060008060008060006101208a8c03121561397957613978613817565b5b60008a013567ffffffffffffffff8111156139975761399661381c565b5b6139a38c828d01613928565b99505060208a013567ffffffffffffffff8111156139c4576139c361381c565b5b6139d08c828d01613928565b98505060408a013567ffffffffffffffff8111156139f1576139f061381c565b5b6139fd8c828d01613928565b97505060608a013567ffffffffffffffff811115613a1e57613a1d61381c565b5b613a2a8c828d01613928565b96505060808a013567ffffffffffffffff811115613a4b57613a4a61381c565b5b613a578c828d01613928565b95505060a08a013567ffffffffffffffff811115613a7857613a7761381c565b5b613a848c828d01613928565b94505060c08a013567ffffffffffffffff811115613aa557613aa461381c565b5b613ab18c828d01613928565b93505060e08a013567ffffffffffffffff811115613ad257613ad161381c565b5b613ade8c828d01613928565b9250506101008a013567ffffffffffffffff811115613b0057613aff61381c565b5b613b0c8c828d01613928565b9150509295985092959850929598565b613b258161364d565b8114613b3057600080fd5b50565b600081359050613b4281613b1c565b92915050565b600080600080600080600060e0888a031215613b6757613b66613817565b5b6000613b758a828b01613b33565b975050602088013567ffffffffffffffff811115613b9657613b9561381c565b5b613ba28a828b01613928565b965050604088013567ffffffffffffffff811115613bc357613bc261381c565b5b613bcf8a828b01613928565b955050606088013567ffffffffffffffff811115613bf057613bef61381c565b5b613bfc8a828b01613928565b945050608088013567ffffffffffffffff811115613c1d57613c1c61381c565b5b613c298a828b01613928565b93505060a088013567ffffffffffffffff811115613c4a57613c4961381c565b5b613c568a828b01613928565b92505060c088013567ffffffffffffffff811115613c7757613c7661381c565b5b613c838a828b01613928565b91505092959891949750929550565b600060208284031215613ca857613ca7613817565b5b6000613cb684828501613b33565b91505092915050565b600082825260208201905092915050565b6000613cdb8261366e565b613ce58185613cbf565b9350613cf581856020860161368a565b613cfe816136b4565b840191505092915050565b600060c0820190508181036000830152613d238189613cd0565b90508181036020830152613d378188613cd0565b90508181036040830152613d4b8187613cd0565b90508181036060830152613d5f8186613cd0565b90508181036080830152613d738185613cd0565b905081810360a0830152613d878184613cd0565b9050979650505050505050565b60008060008060008060c08789031215613db157613db0613817565b5b600087013567ffffffffffffffff811115613dcf57613dce61381c565b5b613ddb89828a01613928565b965050602087013567ffffffffffffffff811115613dfc57613dfb61381c565b5b613e0889828a01613928565b955050604087013567ffffffffffffffff811115613e2957613e2861381c565b5b613e3589828a01613928565b945050606087013567ffffffffffffffff811115613e5657613e5561381c565b5b613e6289828a01613928565b935050608087013567ffffffffffffffff811115613e8357613e8261381c565b5b613e8f89828a01613928565b92505060a087013567ffffffffffffffff811115613eb057613eaf61381c565b5b613ebc89828a01613928565b9150509295509295509295565b60008115159050919050565b613ede81613ec9565b82525050565b606082016000820151613efa6000850182613ed5565b506020820151613f0d6020850182613ed5565b506040820151613f206040850182613ed5565b50505050565b6000606082019050613f3b6000830184613ee4565b92915050565b6000806000806000806000806000806101408b8d031215613f6557613f64613817565b5b6000613f738d828e01613b33565b9a505060208b013567ffffffffffffffff811115613f9457613f9361381c565b5b613fa08d828e01613928565b99505060408b013567ffffffffffffffff811115613fc157613fc061381c565b5b613fcd8d828e01613928565b98505060608b013567ffffffffffffffff811115613fee57613fed61381c565b5b613ffa8d828e01613928565b97505060808b013567ffffffffffffffff81111561401b5761401a61381c565b5b6140278d828e01613928565b96505060a08b013567ffffffffffffffff8111156140485761404761381c565b5b6140548d828e01613928565b95505060c08b013567ffffffffffffffff8111156140755761407461381c565b5b6140818d828e01613928565b94505060e08b013567ffffffffffffffff8111156140a2576140a161381c565b5b6140ae8d828e01613928565b9350506101008b013567ffffffffffffffff8111156140d0576140cf61381c565b5b6140dc8d828e01613928565b9250506101208b013567ffffffffffffffff8111156140fe576140fd61381c565b5b61410a8d828e01613928565b9150509295989b9194979a5092959850565b600060208201905081810360008301526141368184613cd0565b905092915050565b600060c083016000830151848203600086015261415b82826136c5565b9150506020830151848203602086015261417582826136c5565b9150506040830151848203604086015261418f82826136c5565b915050606083015184820360608601526141a982826136c5565b915050608083015184820360808601526141c382826136c5565b91505060a083015184820360a08601526141dd82826136c5565b9150508091505092915050565b600060c083016000830151848203600086015261420782826136c5565b9150506020830151848203602086015261422182826136c5565b9150506040830151848203604086015261423b82826136c5565b9150506060830151848203606086015261425582826136c5565b9150506080830151848203608086015261426f82826136c5565b91505060a083015184820360a086015261428982826136c5565b9150508091505092915050565b600060e08301600083015184820360008601526142b382826136c5565b915050602083015184820360208601526142cd82826136c5565b915050604083015184820360408601526142e782826136c5565b9150506060830151848203606086015261430182826136c5565b9150506080830151848203608086015261431b82826136c5565b91505060a083015184820360a086015261433582826136c5565b91505060c083015184820360c086015261434f82826136c5565b9150508091505092915050565b600061012083016000830151848203600086015261437a82826136c5565b9150506020830151848203602086015261439482826136c5565b915050604083015184820360408601526143ae82826136c5565b915050606083015184820360608601526143c882826136c5565b915050608083015184820360808601526143e282826136c5565b91505060a083015184820360a08601526143fc82826136c5565b91505060c083015184820360c086015261441682826136c5565b91505060e083015184820360e086015261443082826136c5565b91505061010083015184820361010086015261444c82826136c5565b9150508091505092915050565b60006080820190508181036000830152614473818761413e565b9050818103602083015261448781866141ea565b9050818103604083015261449b8185614296565b905081810360608301526144af818461435c565b905095945050505050565b6144c381613ec9565b82525050565b60006060820190506144de60008301866144ba565b6144eb60208301856144ba565b6144f860408301846144ba565b949350505050565b60008060006060848603121561451957614518613817565b5b600061452786828701613b33565b935050602084013567ffffffffffffffff8111156145485761454761381c565b5b61455486828701613928565b925050604084013567ffffffffffffffff8111156145755761457461381c565b5b61458186828701613928565b9150509250925092565b600080600080600080600060e0888a0312156145aa576145a9613817565b5b600088013567ffffffffffffffff8111156145c8576145c761381c565b5b6145d48a828b01613928565b975050602088013567ffffffffffffffff8111156145f5576145f461381c565b5b6146018a828b01613928565b965050604088013567ffffffffffffffff8111156146225761462161381c565b5b61462e8a828b01613928565b955050606088013567ffffffffffffffff81111561464f5761464e61381c565b5b61465b8a828b01613928565b945050608088013567ffffffffffffffff81111561467c5761467b61381c565b5b6146888a828b01613928565b93505060a088013567ffffffffffffffff8111156146a9576146a861381c565b5b6146b58a828b01613928565b92505060c088013567ffffffffffffffff8111156146d6576146d561381c565b5b6146e28a828b01613928565b91505092959891949750929550565b60006020828403121561470757614706613817565b5b600082013567ffffffffffffffff8111156147255761472461381c565b5b61473184828501613928565b91505092915050565b6147438161364d565b82525050565b600060208201905061475e600083018461473a565b92915050565b61476d81613ec9565b811461477857600080fd5b50565b60008135905061478a81614764565b92915050565b600080600080608085870312156147aa576147a9613817565b5b60006147b887828801613b33565b94505060206147c98782880161477b565b93505060406147da8782880161477b565b92505060606147eb8782880161477b565b91505092959194509250565b600080600080600080600080610100898b03121561481857614817613817565b5b60006148268b828c01613b33565b985050602089013567ffffffffffffffff8111156148475761484661381c565b5b6148538b828c01613928565b975050604089013567ffffffffffffffff8111156148745761487361381c565b5b6148808b828c01613928565b965050606089013567ffffffffffffffff8111156148a1576148a061381c565b5b6148ad8b828c01613928565b955050608089013567ffffffffffffffff8111156148ce576148cd61381c565b5b6148da8b828c01613928565b94505060a089013567ffffffffffffffff8111156148fb576148fa61381c565b5b6149078b828c01613928565b93505060c089013567ffffffffffffffff8111156149285761492761381c565b5b6149348b828c01613928565b92505060e089013567ffffffffffffffff8111156149555761495461381c565b5b6149618b828c01613928565b9150509295985092959890939650565b6000819050919050565b61498481614971565b82525050565b600060208201905061499f600083018461497b565b92915050565b60006101208201905081810360008301526149c0818c613cd0565b905081810360208301526149d4818b613cd0565b905081810360408301526149e8818a613cd0565b905081810360608301526149fc8189613cd0565b90508181036080830152614a108188613cd0565b905081810360a0830152614a248187613cd0565b905081810360c0830152614a388186613cd0565b905081810360e0830152614a4c8185613cd0565b9050818103610100830152614a618184613cd0565b90509a9950505050505050505050565b600060e0820190508181036000830152614a8b818a613cd0565b90508181036020830152614a9f8189613cd0565b90508181036040830152614ab38188613cd0565b90508181036060830152614ac78187613cd0565b90508181036080830152614adb8186613cd0565b905081810360a0830152614aef8185613cd0565b905081810360c0830152614b038184613cd0565b905098975050505050505050565b60008060408385031215614b2857614b27613817565b5b6000614b3685828601613b33565b925050602083013567ffffffffffffffff811115614b5757614b5661381c565b5b614b6385828601613928565b9150509250929050565b7f4e487b7100000000000000000000000000000000000000000000000000000000600052602260045260246000fd5b60006002820490506001821680614bb457607f821691505b602082108103614bc757614bc6614b6d565b5b50919050565b60008190508160005260206000209050919050565b60006020601f8301049050919050565b600082821b905092915050565b600060088302614c2f7fffffffffffffffffffffffffffffffffffffffffffffffffffffffffffffffff82614bf2565b614c398683614bf2565b95508019841693508086168417925050509392505050565b6000819050919050565b6000614c76614c71614c6c84614971565b614c51565b614971565b9050919050565b6000819050919050565b614c9083614c5b565b614ca4614c9c82614c7d565b848454614bff565b825550505050565b600090565b614cb9614cac565b614cc4818484614c87565b505050565b5b81811015614ce857614cdd600082614cb1565b600181019050614cca565b5050565b601f821115614d2d57614cfe81614bcd565b614d0784614be2565b81016020851015614d16578190505b614d2a614d2285614be2565b830182614cc9565b50505b505050565b600082821c905092915050565b6000614d5060001984600802614d32565b1980831691505092915050565b6000614d698383614d3f565b9150826002028217905092915050565b614d828261366e565b67ffffffffffffffff811115614d9b57614d9a61382b565b5b614da58254614b9c565b614db0828285614cec565b600060209050601f831160018114614de35760008415614dd1578287015190505b614ddb8582614d5d565b865550614e43565b601f198416614df186614bcd565b60005b82811015614e1957848901518255600182019150602085019450602081019050614df4565b86831015614e365784890151614e32601f891682614d3f565b8355505b6001600288020188555050505b505050505050565b7f4e487b7100000000000000000000000000000000000000000000000000000000600052601160045260246000fd5b6000614e8582614971565b91507fffffffffffffffffffffffffffffffffffffffffffffffffffffffffffffffff8203614eb757614eb6614e4b565b5b600182019050919050565b600081905092915050565b6000614ed88261366e565b614ee28185614ec2565b9350614ef281856020860161368a565b80840191505092915050565b6000614f0a8284614ecd565b91508190509291505056fea26469706673582212203079a63bac88b40347b6d2efced50ab03bcc4bc8134d56c004bfdb6ac2d501a364736f6c63430008180033",
  "linkReferences": {},
  "deployedLinkReferences": {}
}